:020000020000FC
:1000000012C0189518951895189518951895189563
:100010001895C0C0189518951895189518951895A5
:1000200018951895189504E00EBF0FE50DBF01E077
:1000300004BB00E005BB0EEF07BB0EE008BB05E00C
:1000400003BF06EF02BF01E009BF36E029EF02E877
:1000500006B901EE07B9789403B308700830E1F3EC
:1000600002EC07B906B110E4012B06B906B110E4A1
:100070000123E1F744B155B101E005BB303081F512
:1000800036E0D0E0C0E084E002EC07B906B110E44D
:10009000012B06B906B110E40123E1F704B115B153
:1000A000040B151B110F110F110F110F110F110F51
:1000B00006950695010F10E0C00FD11F8A9580307C
:1000C00041F09CE702E003BF0BEF02BF9030F1F775
:1000D000DDCF84E0ECEBF1E0EC0FFD1F649114C088
:1000E000203089F429EF01EE07B906B110E4012BA5
:1000F00006B906B110E40123E1F705B1063E08F4A4
:10010000BDCFBCCFEDCFBACF70E0643698F0739519
:1001100064566436E0F7770F770F770F770F0CE0B0
:10012000702B78BB91E09030F1F708B312E0012B0F
:1001300008BB70E06A30A0F073956A506A30E0F74F
:10014000770F770F770F770F0AE0702B78BB91E06E
:100150009030F1F708B30E7F14E0012B08BB70E07C
:10016000613020F0739561506130E0F7770F770FC1
:10017000770F770F06E0702B78BB91E09030F1F7A6
:1001800008B318E0012B08BB70E005E003BF06EFE1
:1001900002BFB8CF0F930FB70F9303B7053051F4D9
:1001A00004C00F910FBF0F91189506EF02BF2A955B
:1001B0003A95F7CF0BEF02BF9A95F3CF00000000FE
:1001C000000101010101020202020303030303040F
:1001D00004040405050505050606060607070707C6
:1001E000070808080809090909090A0A0A0A0B0B7D
:1001F0000B0B0B0C0C0C0C0D0D0D0D0D0E0E0E0E35
:100200000F0F0F0F0F1010101010111111111212EB
:1002100012121213131313141414141415151515A4
:10022000161616161617171717181818181819195A
:1002300019191A1A1A1A1A1B1B1B1B1C1C1C1C1C12
:100240001D1D1D1D1E1E1E1E1E1F1F1F1F202020C8
:100250002020212121212122222222232323232382
:100260002424242425252525252626262627272738
:1002700027272828282829292929292A2A2A2A2BF0
:100280002B2B2B2B2C2C2C2C2D2D2D2D2D2E2E2EA7
:100290002E2F2F2F2F2F303030303131313131325E
:1002A0003232323233333333343434343435353517
:1002B00035363636363637373737383838383839CE
:1002C0003939393A3A3A3A3A3B3B3B3B3C3C3C3C85
:1002D0003C3D3D3D3D3E3E3E3E3E3F3F3F3F40403C
:1002E00040404041414141424242424243434343F4
:1002F00043444444444545454545464646464747AC
:100300004747474848484849494949494A4A4A4A63
:100310004B4B4B4B4B4C4C4C4C4D4D4D4D4D4E4E19
:100320004E4E4F4F4F4F4F505050505151515151D1
:100330005252525253535353535454545454555588
:100340005555565656565657575757585858585841
:10035000595959595A5A5A5A5A5B5B5B5B5C5C5CF7
:100360005C5C5D5D5D5D5E5E5E5E5E5F5F5F5F60AF
:100370006060606061616161626262626263636366
:100380006363646464646465656565656666666622
:1003900067676767676868686869696969696A6AD9
:1003A0006A6A6B6B6B6B6B6C6C6C6C6D6D6D6D6D91
:1003B0006E6E6E6E6F6F6F6F6F7070707071717147
:1003C0007171727272727373737373747474747400
:1003D00075757575767676767677777777787878B7
:1003E0007878797979797A7A7A7A7A7B7B7B7B7C6F
:1003F0007C7C7C7C7D7D7D7D7E7E7E7E7E7F7F7F26
:100400007F808080808081818181828282828283DC
:100410008383838484848484858585858586868694
:100420008687878787878888888889898989898A4C
:100430008A8A8A8B8B8B8B8B8C8C8C8C8D8D8D8D03
:100440008D8E8E8E8E8F8F8F8F8F909090909191BA
:100450009191919292929293939393939494949472
:100460009595959595969696969697979797989829
:10047000989898999999999A9A9A9A9A9B9B9B9BE2
:100480009C9C9C9C9C9D9D9D9D9E9E9E9E9E9F9F98
:100490009F9FA0A0A0A0A0A0A0A0A0A0A0A0A0A05E
:1004A000A0A0A0A0A0A0A0A0A0A0A0A0A0A0A0A04C
:1004B000A0A0A0000000000000000000000000005C
:1004C000000000000000000000000000000000002C
:1004D000000000000000000000000000000000001C
:1004E000000000000000000000000000000000000C
:1004F00000000000000000000000000000000000FC
:1005000000000000000000000000000000000000EB
:1005100000000000000000000000000000000000DB
:1005200000000000000000000000000000000000CB
:1005300000000000000000000000000000000000BB
:1005400000000000000000000000000000000000AB
:10055000000000000000000000000000000000009B
:10056000000000000000000000000000000000008B
:10057000000000000000000000000000000000007B
:10058000000000000000000000000000000000006B
:10059000000000000000000000000000000000005B
:1005A000000000000000000000000000000000004B
:0E05B00000000000000000000000000000003D
:00000001FF
